S00C000052544F532E73726563D0
S11300000C942C000C9454000C9454000C94540044
S11300100C9454000C9454000C9454000C94A900B7
S11300200C9454000C9454000C9454000C945400FC
S11300300C9454000C949F020C9454000C94DD0214
S11300400C9454000C9454000C9454000C945400DC
S11300500C945400AB03AF0311241FBECFE5D8E0CA
S1130060DEBFCDBF10E0A0E6B0E0EAE0F9E002C0F8
S113007005900D92A23BB107D9F722E0A2EBB0E0C4
S113008001C01D92AF32B207E1F710E0CBE2D0E03D
S113009004C02197FE010E943D04CA32D107C9F76A
S11300A00E9488030C9478040C9400000F931F930F
S11300B0CF93DF93CDB7DEB729970FB6F894DEBFA1
S11300C00FBECDBF8C0181E0898393E09A831B82AC
S11300D01C828D8380E895E2A0E0B0E08E839F834C
S11300E0A887B987BE016F5F7F4FC8010E94B30321
S11300F0F801128629960FB6F894DEBF0FBECDBF65
S1130100DF91CF911F910F910895CF93DF93EC016D
S11301108A85882329F060E670E0CE010E940704F6
S113012081E08A87CE01DF91CF910895FC01128688
S11301300895CF93DF93EC0140E051EE60E070E06E
S11301400E94E0036DE770E0CE01DF91CF910C9443
S113015007041F920F920FB60F9211242F933F930F
S11301604F935F936F937F938F939F93AF93BF93BB
S1130170EF93FF938091B4009091B5000E943B01EE
S1130180FF91EF91BF91AF919F918F917F916F916B
S11301905F914F913F912F910F900FBE0F901F9041
S11301A018950F931F93CF93DF93EC010E940901DD
S11301B08E0101531F4FC8010E945600D093B50011
S11301C0C093B4001093B3000093B200DF91CF91B9
S11301D01F910F9108951FBC2BE02EBD29EF30E035
S11301E03BBD2ABD20E129BF81539F4F0E94990046
S11301F0789408950C94D70181539F4F0C948500F3
S113020081539F4F0C949600EC01CE010E9484010F
S1130210FCCFCF93DF93FC019C012C543F4F118200
S1130220108213821282158214821682178210861B
S11302301186128613861486158616861786108AEA
S1130240118A7296E217F30751F7DC01A853BF4FE6
S11302501C92EC01C753DF4F188219821A821B8249
S113026024961982188211921192EA17FB07D9F782
S1130270DF91CF910895CF93DF93DC01FC01E75325
S1130280FF4F40815181628173814F5F5F4F6F4F98
S11302907F4F408351836283738390E0ED01C853A1
S11302A0DF4F8881981768F59D01290F311D290FAB
S11302B0311DF901EC54FF4F0190F081E02D2281B2
S11302C0338122303105D9F44681578160857185A7
S11302D0411551056105710541F04150510961090C
S11302E0710946835783608771874681578160858A
S11302F07185452B462B472B11F4138212829F5F85
S1130300D0CFDF91CF910895CF93DF93FC01E853D1
S1130310FF4FC081749720E040E050E03FEF2C177E
S113032099F0A191B19112966D917C911397672BDD
S113033049F414966D917C9115974617570714F458
S1130340322FAB012F5FEBCF37FD2EC0FC0122E033
S11303503202E00DF11D1124EC54FF4F0190F081A5
S1130360E02DEC01C353DF4FF983E88321E030E053
S113037033832283DC01A753BF4F8D919D910D9050
S1130380BC91A02D86879787A08BB18B0190F081BB
S1130390E02D0995E881F98182819381019711F417
S11303A01382128219821882DF91CF910895CF931C
S11303B0DF93DC01A853BF4F2C912A3028F5FC01B0
S11303C032E1239FE00DF11D1124820F911D820F54
S11303D0911DEC01CC54DF4FF983E8837183608372
S11303E013821282558344831682178210861186E3
S11303F0128613861486158616861786108A118A25
S11304002F5F2C9381E001C080E0DF91CF910895AC
S113041083539F4FDC01ED91FC91309741F082E0D2
S113042090E093838283468357836087718708951E
S11304308150833048F4E82FF0E0EE0FFF1FE756B9
S1130440FF4F8081918108958BE390E00895CF93CD
S1130450DF93D62FC42F0E941802FC0121E030E064
S113046001C0220FDA95EAF78081C13011F4282BFC
S113047002C0209528232083DF91CF9108958AB16B
S1130480877E8AB908959B01AC0184E0220F331F53
S1130490441F551F8A95D1F760E074E284EF90E021
S11304A00E941B042150310930BD29B90895CF920F
S11304B0DF92EF92FF920F931F93CF93DF93D82E87
S11304C0D22FCC2DCB01BA010E9443028D2F880F6D
S11304D0806898E0099F80011124082B80E1E89E40
S11304E070011124E02AE0BC88E18AB9D73009F40C
S11304F0529AC23031F0C33031F0C13039F4579AD6
S113050005C0569A03C08AB1806C8AB9D1100AC05A
S1130510DF91CF911F910F91FF90EF90DF90CF90DB
S11305200C943F02DF91CF911F910F91FF90EF90B8
S1130530DF90CF9008955D9BFECF8CB908951F92F4
S11305400F920FB60F9211242F933F934F935F9303
S11305506F937F938F939F93AF93BF93EF93FF9387
S11305608CB1E091B600F091B700309711F0099585
S113057013C02091BB0030E02F5F3F4F2F73332710
S11305809091BA00921741F0E091BB00F0E0E45082
S1130590FF4F80832093BB00FF91EF91BF91AF91F8
S11305A09F918F917F916F915F914F913F912F9187
S11305B00F900FBE0F901F9018951F920F920FB6B9
S11305C00F9211248F939F93EF93FF939091B9000F
S11305D08091B800981779F0E091B800F0E0E45405
S11305E0FF4F80818CB98091B80090E001968F73A1
S11305F099278093B800FF91EF919F918F910F906D
S11306000FBE0F901F901895CF93DF9385E591E06F
S11306100E94FC00EC016FE970E00E94E703809106
S1130620510190915201A0915301B0915401AC0138
S1130630BD014F5F5F4F6F4F7F4F40935101509308
S1130640520160935301709354014AE06CE371E0EA
S11306500E944304BC01CE010E94E70385E591E0BA
S11306600E94000142E350E060E070E085E591E023
S1130670DF91CF910C940802CF93DF9385E591E04D
S11306800E94FC00EC0167EA70E00E94E70380919D
S11306904D0190914E01A0914F01B0915001AC01D8
S11306A0BD014F5F5F4F6F4F7F4F40934D0150939C
S11306B04E0160934F01709350014AE06CE371E086
S11306C00E944304BC01CE010E94E70385E591E04A
S11306D00E94000144EF51E060E070E085E591E0A4
S11306E0DF91CF910C94080240914C0160E082E0CC
S11306F00E94270290914C0181E0892780934C014C
S113070040ED57E060E070E085E591E00C9408026C
S113071085E591E00E94EB0043E050E064E073E083
S113072085E591E00E94FA0042E050E06CE373E05A
S113073085E591E00E94FA0041E050E064E773E04F
S113074085E591E00E94FA0085E591E00E940401AC
S113075081E090E0089585E591E00C94D10084E275
S113076092E00C94BD0329E0FB01DC0101900D92A1
S11307702A95E1F7FC0111860895FC018185811118
S11307800C943F020895CF92EF920F93CF93DF938F
S1130790EC014D815E816F817885CC80EB800A818C
S11307A0298188810E94570281E09881913009F063
S11307B080E08987DF91CF910F91EF90CF900895DA
S11307C0FC0145835683678370870C94C3030F939E
S11307D01F93CF93DF93FC018185882389F06115F2
S11307E0710571F0EB018B01C8018C1B9D0BF801A5
S11307F021918F01222331F0822F0E949B02F4CF9A
S113080080E090E0DF91CF911F910F9108950F93B5
S11308101F93CF93DF93EC010E94E7038C016FEAEF
S113082070E0CE010E94E703800F911FDF91CF910A
S11308301F910F910895A1E21A2EAA1BBB1BFD0163
S11308400DC0AA1FBB1FEE1FFF1FA217B307E407AB
S1130850F50720F0A21BB30BE40BF50B661F771F03
S1130860881F991F1A9469F76095709580959095E3
S11308709B01AC01BD01CF010895EE0FFF1F059050
S1130880F491E02D0994BB274A3031F4992322F4E2
S1130890BDE2909581959F4F0C944F04BB27FB01BB
S11308A05527AA27880F991FAA1FA41710F0A41B65
S11308B083955051B9F7A05DAA3308F0A95DA193BF
S11308C0009779F7B111B1931192CB010C9468049C
S11308D0DC01FC01672F71917723E1F7329704C0A3
S11308E07C916D9370836291AE17BF07C8F308952E
S11308F010E0CBE2D0E004C0FE010E943D0421964A
S10D0900CC32D107C9F7F894FFCFF9
S113090A4552524F523A205541525420697320613C
S113091A6C7265616479206275737921005265731A
S113092A6F757263654D616E6167657220696E6980
S113093A7469616C697A6564003800350032000AAA
S113094A0D4641535423000A0D736C6F772E000D24
S105095A0A008D
S9030000FC
