S00C000052544F532E73726563D0
S11300000C942C000C9454000C9454000C94540044
S11300100C9454000C9454000C9454000C94DC0084
S11300200C9454000C9454000C9454000C945400FC
S11300300C9454000C9467020C9454000C94A50284
S11300400C9454000C9454000C9454000C945400DC
S11300500C9454000D03110311241FBECFE5D8E006
S1130060DEBFCDBF10E0A0E6B0E0E4E6F7E002C0FA
S113007005900D92A83DB107D9F722E0A8EDB0E0B4
S113008001C01D92AA33B207E1F710E0CBE2D0E041
S113009004C02197FE010E949F03CA32D107C9F709
S11300A00E94F4020C94A5030C940000CF93DF93F8
S11300B0FC019C012C543F4F118210821382128246
S11300C01582148216821782108611861286138670
S11300D01486158616861786108A118A7296E21778
S11300E0F30751F7DC01A853BF4F1C92EC01C7532F
S11300F0DF4F188219821A821B8224961982188271
S113010011921192EA17FB07D9F7DF91CF91089565
S11301101FBC8BE08EBD89EF90E09BBD8ABD80E162
S113012089BF78940895CF93DF93DC01FC01E753F2
S1130130FF4F40815181628173814F5F5F4F6F4FE9
S11301407F4F408351836283738390E0ED01C853F2
S1130150DF4F8881981768F59D01290F311D290FFC
S1130160311DF901EC54FF4F0190F081E02D228103
S1130170338122303105D9F44681578160857185F8
S1130180411551056105710541F04150510961095D
S113019071094683578360877187468157816085DB
S11301A07185452B462B472B11F4138212829F5FD6
S11301B0D0CFDF91CF9108951F920F920FB60F9277
S11301C011242F933F934F935F936F937F938F9358
S11301D09F93AF93BF93EF93FF938091D800909137
S11301E0D9000E949300FF91EF91BF91AF919F912D
S11301F08F917F916F915F914F913F912F910F90CC
S11302000FBE0F901F901895CF93DF93FC01E85316
S1130210FF4FC081749720E040E050E03FEF2C177F
S113022099F0A191B19112966D917C911397672BDE
S113023049F414966D917C9115974617570714F459
S1130240322FAB012F5FEBCF37FD2EC0FC0122E034
S11302503202E00DF11D1124EC54FF4F0190F081A6
S1130260E02DEC01C353DF4FF983E88321E030E054
S113027033832283DC01A753BF4F8D919D910D9051
S1130280BC91A02D86879787A08BB18B0190F081BC
S1130290E02D0995E881F98182819381019711F418
S11302A01382128219821882DF91CF910895CF931D
S11302B0DF93DC01A853BF4F2C912A3028F5FC01B1
S11302C032E1239FE00DF11D1124820F911D820F55
S11302D0911DEC01CC54DF4FF983E8837183608373
S11302E013821282558344831682178210861186E4
S11302F0128613861486158616861786108A118A26
S11303002F5F2C9381E001C080E0DF91CF910895AD
S113031083539F4FDC01ED91FC91309741F082E0D3
S113032090E093838283468357836087718708951F
S11303300F931F93CF93DF93CDB7DEB729970FB6F3
S1130340F894DEBF0FBECDBF8C010E94560081E041
S1130350898393E09A831B821C828D8380E895E2D3
S1130360A0E0B0E08E839F83A887B987BE016F5F4A
S11303707F4FC80181539F4F0E941503F801E75234
S1130380FF4F10821093D9000093D80029960FB61E
S1130390F894DEBF0FBECDBFDF91CF911F910F91B7
S11303A00895CF93DF93EC010E948800C153DF4F7F
S11303B040E051EE60E070E0CE010E94420360E64E
S11303C070E0CE01DF91CF910C9469030F931F93DA
S11303D0CF93DF938C0107521F4FF8012081EC016A
S11303E0C153DF4F222329F06AE770E0CE010E9457
S11303F0690381E0F8018083CE01DF91CF911F91E1
S11304000F91089587529F4FFC01108208958AB17D
S1130410877E8AB908959B01AC0184E0220F331FC3
S1130420441F551F8A95D1F760E074E284EF90E091
S11304300E947D032150310930BD29B90895CF921E
S1130440DF92EF92FF920F931F93CF93DF93D82EF7
S1130450D22FCC2DCB01BA010E940B028D2F880F15
S1130460806898E0099F80011124082B80E1E89EB0
S113047070011124E02AE0BC88E18AB9D73009F47C
S1130480529AC23031F0C33031F0C13039F4579A46
S113049005C0569A03C08AB1806C8AB9D1100AC0CB
S11304A0DF91CF911F910F91FF90EF90DF90CF904C
S11304B00C940702DF91CF911F910F91FF90EF9061
S11304C0DF90CF9008955D9BFECF8CB908951F9265
S11304D00F920FB60F9211242F933F934F935F9374
S11304E06F937F938F939F93AF93BF93EF93FF93F8
S11304F08CB1E091DA00F091DB00309711F00995AE
S113050013C02091DF0030E02F5F3F4F2F7333275C
S11305109091DE00921741F0E091DF00F0E0E05EA0
S1130520FE4F80832093DF00FF91EF91BF91AF9145
S11305309F918F917F916F915F914F913F912F91F7
S11305400F900FBE0F901F9018951F920F920FB629
S11305500F9211248F939F93EF93FF939091DD005B
S11305608091DC00981779F0E091DC00F0E0E05233
S1130570FF4F80818CB98091DC0090E001968F73ED
S113058099278093DC00FF91EF919F918F910F90B9
S11305900FBE0F901F90189580E691E00E94E6012F
S11305A067E970E00E94690380E691E00E9402021C
S11305B048EE53E060E070E080E691E00C9488013E
S11305C080E691E00E94E60165EB70E00E94690319
S11305D080E691E00E94020244EF51E060E070E0A6
S11305E080E691E00C94880180E691E00E94D101BC
S11305F042E050E06CEC72E080E691E00E9457012A
S113060043E050E060EE72E080E691E00E94570122
S113061080E691E00E940401FBCF80E691E00C9417
S113062098018FE292E00C941F0329E0FB01DC01A6
S113063001900D922A95E1F7FC0111860895FC01C1
S1130640818581110C9407020895CF92EF920F9344
S1130650CF93DF93EC014D815E816F817885CC80EF
S1130660EB800A81298188810E941F0281E09881A0
S1130670913009F080E08987DF91CF910F91EF905D
S1130680CF900895FC0145835683678370870C944B
S113069025030F931F93CF93DF93FC018185882358
S11306A089F06115710571F0EB018B01C8018C1B98
S11306B09D0BF80121918F01222331F0822F0E949A
S11306C06302F4CF80E090E0DF91CF911F910F910E
S11306D008950F931F93CF93DF93EC010E94490376
S11306E08C0165ED70E0CE010E944903800F911FDB
S11306F0DF91CF911F910F910895A1E21A2EAA1BA9
S1130700BB1BFD010DC0AA1FBB1FEE1FFF1FA217BD
S1130710B307E407F50720F0A21BB30BE40BF50BBA
S1130720661F771F881F991F1A9469F76095709543
S1130730809590959B01AC01BD01CF010895EE0F0A
S1130740FF1F0590F491E02D099410E0CBE2D0E076
S113075004C0FE010E949F032196CC32D107C9F741
S1070760F894FFCF37
S113076453797374656D204B65726E656C20696E84
S1130774697469616C697A6564004552524F523AEE
S1130784205541525420697320616C726561647907
S1130794206275737921005B4845415254424541B6
S11307A4545D200953797374656D20697320616CF9
S11307B469766521005B53454E534F52205245419F
S11307C4445D2009526561642073656E736F722001
S10B07D4696E666F000D0A0056
S9030000FC
