S00C000052544F532E73726563D0
S11300000C942C000C9454000C9454000C94540044
S11300100C9457010C9454000C9454000C94540008
S11300200C9454000C9454000C9454000C945400FC
S11300300C9454000C9454030C9454000C949203A8
S11300400C9454000C9454000C9454000C945400DC
S11300500C9454002A052E0511241FBECFE5D8E0C8
S1130060DEBFCDBF11E0A0E6B0E0E8E0FCE002C0F6
S113007005900D92A832B107D9F722E0A8E2B1E0C9
S113008001C01D92AF3AB207E1F710E0CBE2D0E035
S113009004C02197FE010E94BC05CA32D107C9F7EA
S11300A00E94FF040C94F7050C9400007F928F9239
S11300B09F92AF92BF92CF92DF92EF92FF920F93F3
S11300C01F93CF93DF93EC016A017B01BFB6F894D1
S11300D00E94B70183539F4FDC010D911C910115C0
S11300E0110591F089819A818017910779F0BFBE3B
S11300F00E94B70187539F4FFC0180809180A280AA
S1130100B3807724739429C080E001C081E0BFBE2E
S11301105BC0888181112AC078821A830983D8013F
S113012014962D913C9115973C832B8381E09FBFBE
S1130130811145C05FB7F89441E0411119C05FBF18
S1130140C114D104E104F10431F50E94B70141E086
S113015050E060E070E00E94BD029FB7F8942981EE
S11301603A8120173107A9F69FBF29C080E0DFCF6D
S11301708881882321F3E981FA81309701F3D8013A
S113018014968D919C91159740E024813581281710
S11301903907ACF616C00E94B70187539F4FFC0184
S11301A080819181A281B38188199909AA09BB0927
S11301B08C159D05AE05BF0540F280E005C081E0C9
S11301C003C095838483B9CFDF91CF911F910F91A1
S11301D0FF90EF90DF90CF90BF90AF909F908F9063
S11301E07F900895CF93DF93EC010E94B701E981DA
S11301F0FA8183539F4FDC018D919C91E817F90795
S113020071F48B819C81248135812817390711F081
S11302109583848318821A82198281E001C080E068
S1130220DF91CF9108950F931F93CF93DF93CDB7B1
S1130230DEB729970FB6F894DEBF0FBECDBF8C0191
S113024081E0898393E09A831B821C828D8380E8FA
S113025095E2A0E0B0E08E839F83A887B987BE01B2
S11302606F5F7F4FC8010E943205F8011286148621
S1130270138629960FB6F894DEBF0FBECDBFDF916B
S1130280CF911F910F91089508950A960895CF93E1
S1130290DF93EC0140E051EE60E070E00E945F0506
S11302A060E670E0CE01DF91CF910C9486051F9239
S11302B00F920FB60F9211242F933F934F935F9396
S11302C06F937F938F939F93AF93BF93EF93FF931A
S11302D080912A0190912B010E94EE01FF91EF91F0
S11302E0BF91AF919F918F917F916F915F914F914A
S11302F03F912F910F900FBE0F901F9018950F9361
S11303001F93CF93DF93EC010E94BC018E01015334
S11303101F4FC8010E941301D0932B01C0932A01DF
S11303201093290100932801DF91CF911F910F9120
S113033008959C01F89488E085BD8CE783BD99B746
S1130340906899BF95B5956095BDC90181539F4F3C
S11303500E944701789408950C948C0281539F4F16
S11303600C944401EC01CE010E943702FCCF809131
S11303702A0190912B010895CF93DF93FC019C01F6
S11303802C543F4F118210821382128215821482E0
S11303901682178210861186128613861486158695
S11303A016861786108A118A7296E217F30751F798
S11303B0DC01A853BF4F1C92EC01C753DF4F1882D6
S11303C019821A821B822496198218821192119220
S11303D0EA17FB07D9F7DF91CF910895CF93DF9305
S11303E0DC01FC01E753FF4F40815181628173813D
S11303F04F5F5F4F6F4F7F4F40835183628373839F
S113040090E0ED01C853DF4F8881981768F59D018E
S1130410290F311D290F311DF901EC54FF4F0190B3
S1130420F081E02D2281338122303105D9F44681D7
S1130430578160857185411551056105710541F04C
S11304404150510961097109468357836087718757
S11304504681578160857185452B462B472B11F4C6
S1130460138212829F5FD0CFDF91CF910895CF93F3
S1130470DF93FC01E853FF4FC081749720E040E014
S113048050E03FEF2C1799F0A191B19112966D9124
S11304907C911397672B49F414966D917C91159771
S11304A04617570714F4322FAB012F5FEBCF37FDFC
S11304B02FC0FC0122E03202E00DF11D1124EC54A6
S11304C0FF4F0190F081E02DEC01C353DF4FF9831E
S11304D0E88321E030E033832283DC01A753BF4F5C
S11304E08D919D910D90BC91A02D86879787A08BAF
S11304F0B18B0190F081E02D0995E881F981828129
S11305009381019711F4138212821982188201C017
S11305100000DF91CF910895CF93DF93DC01A853BE
S1130520BF4F2C912A3028F5FC0132E1239FE00DC6
S1130530F11D1124820F911D820F911DEC01CC54E9
S1130540DF4FF983E88371836083138212825583BA
S113055044831682178210861186128613861486A7
S1130560158616861786108A118A2F5F2C9381E0D0
S113057001C080E0DF91CF91089583539F4FDC0148
S1130580ED91FC91309741F082E090E09383828377
S1130590468357836087718708958150833048F478
S11305A0E82FF0E0EE0FFF1FE458FF4F80819181A8
S11305B008958BE390E00895CF93DF93D62FC42F53
S11305C00E94CD02FC0121E030E001C0220FDA9547
S11305D0EAF78081C13011F4282B02C0209528232A
S11305E02083DF91CF9108958AB1877E8AB90895D7
S11305F09B01AC0184E0220F331F441F551F8A95D1
S1130600D1F760E074E284EF90E00E949A052150F3
S1130610310930BD29B90895CF92DF92EF92FF924C
S11306200F931F93CF93DF93D82ED22FCC2DCB01D2
S1130630BA010E94F8028D2F880F806898E0099F04
S113064080011124082B80E1E89E70011124E02A26
S1130650E0BC88E18AB9D73009F4529AC23031F04B
S1130660C33031F0C13039F4579A05C0569A03C0EB
S11306708AB1806C8AB9D1100AC0DF91CF911F91E1
S11306800F91FF90EF90DF90CF900C94F402DF91E4
S1130690CF911F910F91FF90EF90DF90CF9008952D
S11306A05D9BFECF8CB908951F920F920FB60F92E7
S11306B011242F933F934F935F936F937F938F9363
S11306C09F93AF93BF93EF93FF938CB1E0912C0171
S11306D0F0912D01309711F0099513C0209131014B
S11306E030E02F5F3F4F2F733327909130019217E3
S11306F041F0E0913101F0E0EE58FE4F8083209309
S11307003101FF91EF91BF91AF919F918F917F91B3
S11307106F915F914F913F912F910F900FBE0F906A
S11307201F9018951F920F920FB60F9211248F935A
S11307309F93EF93FF9390912F0180912E0198172F
S113074079F0E0912E01F0E0EE5CFE4F80818CB9EF
S113075080912E0190E001968F73992780932E014A
S1130760FF91EF919F918F910F900FBE0F901F906B
S113077018950F931F93CF93DF9381ED91E00E941F
S1130780AE01EC0180EA92E00E9445018C014AE04E
S113079050E060E070E00E945600882341F162E876
S11307A070E0CE010E9466058091CD019091CE014A
S11307B0A091CF01B091D001AC01BD014F5F5F4F5B
S11307C06F4F7F4F4093CD015093CE016093CF0183
S11307D07093D0014AE064EB71E00E94C205BC0151
S11307E0CE010E946605C8010E94F20005C066E8B9
S11307F070E0CE010E94660542E350E060E070E0E4
S113080081ED91E0DF91CF911F910F910C94BD0286
S11308100F931F93CF93DF9381ED91E00E94AE017C
S1130820EC0180EA92E00E9445018C014AE050E02C
S113083060E070E00E945600882341F16BEA70E0AA
S1130840CE010E9466058091C9019091CA01A091D0
S1130850CB01B091CC01AC01BD014F5F5F4F6F4F35
S11308607F4F4093C9015093CA016093CB017093A9
S1130870CC014AE064EB71E00E94C205BC01CE01E8
S11308800E946605C8010E94F20005C06FEA70E08C
S1130890CE010E94660544EF51E060E070E081ED16
S11308A091E0DF91CF911F910F910C94BD02EF92D3
S11308B0FF920F931F93CF93DF9300D0CDB7DEB792
S11308C081ED91E00E94AE018C0180EA92E00E94E9
S11308D045017C018091B301811113C06091C40171
S11308E07091C5018091C6019091C70125E030E067
S11308F040E050E00E949A056093B20181E0809349
S1130900B3014091B20123E0429FA00111244B5F47
S11309105F4F052E000C660B770BC7010E94560033
S113092064ED70E0882351F1C8010E94660580914E
S1130930B2014AE064EB71E090E00E94C205BC01A0
S1130940C8010E94660568ED70E0C8010E94660552
S11309501A82198289819A81883E934034F489816C
S11309609A8101969A838983F5CF6DED70E0C80171
S11309700E946605C7010E94F20014C0C8010E94CB
S113098066058091B2014AE064EB71E090E00E9458
S1130990C205BC01C8010E94660563EE70E0C8018F
S11309A00E9466054091B2018AE0489FA00111248B
S11309B04C5E5F4F052E000C660B770B81ED91E0CA
S11309C00E94BD020F900F90DF91CF911F910F9164
S11309D0FF90EF9008954091C80160E082E00E948A
S11309E0DC029091C80181E089278093C80144EF1B
S11309F051E060E070E081ED91E00C94BD0281ED86
S1130A0091E00E94990143E050E069EB73E081EDCD
S1130A1091E00E94AC0142E050E068E074E081EDB6
S1130A2091E00E94AC0141E050E06BEE74E081ED96
S1130A3091E00E94AC0142E050E067E574E081ED92
S1130A4091E00E94AC0181ED91E00E94B20181E04D
S1130A5090E0089581ED91E00C947F0180EA92E0AA
S1130A600C943C0529E0FB01DC0101900D922A95D0
S1130A70E1F7FC0111860895FC01818581110C9434
S1130A80F4020895CF92EF920F93CF93DF93EC018A
S1130A904D815E816F817885CC80EB800A812981CC
S1130AA088810E940C0381E09881913009F080E0F4
S1130AB08987DF91CF910F91EF90CF900895FC013A
S1130AC045835683678370870C9442050F931F9365
S1130AD0CF93DF93FC018185882389F0611571052B
S1130AE071F0EB018B01C8018C1B9D0BF801219166
S1130AF08F01222331F0822F0E945003F4CF80E033
S1130B0090E0DF91CF911F910F9108950F931F9360
S1130B10CF93DF93EC010E9466058C0165E271E0DE
S1130B20CE010E946605800F911FDF91CF911F9126
S1130B300F910895A1E21A2EAA1BBB1BFD010DC043
S1130B40AA1FBB1FEE1FFF1FA217B307E407F50779
S1130B5020F0A21BB30BE40BF50B661F771F881F55
S1130B60991F1A9469F760957095809590959B01EB
S1130B70AC01BD01CF010895EE0FFF1F0590F49164
S1130B80E02D0994BB274A3031F4992322F4BDE2C5
S1130B90909581959F4F0C94CE05BB27FB0155275B
S1130BA0AA27880F991FAA1FA41710F0A41B8395C6
S1130BB05051B9F7A05DAA3308F0A95DA19300973D
S1130BC079F7B111B1931192CB010C94E705DC01D3
S1130BD0FC01672F71917723E1F7329704C07C9170
S1130BE06D9370836291AE17BF07C8F3089510E048
S1130BF0CBE2D0E004C0FE010E94BC052196CC32B9
S10B0C00D107C9F7F894FFCFF6
S1130C085265736F757263654D616E6167657220B5
S1130C18696E697469616C697A65640038003500C5
S1130C2832000A0D46000A0D666173745461736BD1
S1130C382829202D204661696C75726520546F201F
S1130C484C6F636B205541525420000A0D73000AFF
S1130C580D736C6F775461736B2829202D204661BE
S1130C68696C75726520546F204C6F636B20554115
S1130C78525420000A0D54005B494E5D005B4F55E9
S1130C88545D005B424C4F434B45445D000A0D5391
S1130C9854524553535B000A0D4641494C5B000AC4
S1130CA80D4C4F575F5052494F5F4C4F434B45448F
S1130CB8000A0D4C4F575F5052494F5F52454C45FF
S10B0CC841534544000D0A00EC
S9030000FC
