S00C000052544F532E73726563D0
S11300000C942C000C9454000C9454000C94540044
S11300100C9454000C9454000C9454000C94DC0084
S11300200C9454000C9454000C9454000C945400FC
S11300300C9454000C948E020C9454000C94CC0236
S11300400C9454000C9454000C9454000C945400DC
S11300500C94540098039C0311241FBECFE5D8E0F0
S1130060DEBFCDBF10E0A0E6B0E0E4EEF8E002C0F1
S113007005900D92A03BB107D9F722E0A0EBB0E0C8
S113008001C01D92AB32B207E1F710E0CBE2D0E041
S113009004C02197FE010E942A04CA32D107C9F77D
S11300A00E9477030C9465040C940000CF93DF93B3
S11300B0FC019C012C543F4F118210821382128246
S11300C01582148216821782108611861286138670
S11300D01486158616861786108A118A7296E21778
S11300E0F30751F7DC01A853BF4F1C92EC01C7532F
S11300F0DF4F188219821A821B8224961982188271
S113010011921192EA17FB07D9F7DF91CF91089565
S11301101FBC8BE08EBD89EF90E09BBD8ABD80E162
S113012089BF78940895CF93DF93DC01FC01E753F2
S1130130FF4F40815181628173814F5F5F4F6F4FE9
S11301407F4F408351836283738390E0ED01C853F2
S1130150DF4F8881981768F59D01290F311D290FFC
S1130160311DF901EC54FF4F0190F081E02D228103
S1130170338122303105D9F44681578160857185F8
S1130180411551056105710541F04150510961095D
S113019071094683578360877187468157816085DB
S11301A07185452B462B472B11F4138212829F5FD6
S11301B0D0CFDF91CF9108951F920F920FB60F9277
S11301C011242F933F934F935F936F937F938F9358
S11301D09F93AF93BF93EF93FF938091B00090915F
S11301E0B1000E949300FF91EF91BF91AF919F9155
S11301F08F917F916F915F914F913F912F910F90CC
S11302000FBE0F901F901895CF93DF93FC01E85316
S1130210FF4FC081749720E040E050E03FEF2C177F
S113022099F0A191B19112966D917C911397672BDE
S113023049F414966D917C9115974617570714F459
S1130240322FAB012F5FEBCF37FD2EC0FC0122E034
S11302503202E00DF11D1124EC54FF4F0190F081A6
S1130260E02DEC01C353DF4FF983E88321E030E054
S113027033832283DC01A753BF4F8D919D910D9051
S1130280BC91A02D86879787A08BB18B0190F081BC
S1130290E02D0995E881F98182819381019711F418
S11302A01382128219821882DF91CF910895CF931D
S11302B0DF93DC01A853BF4F2C912A3028F5FC01B1
S11302C032E1239FE00DF11D1124820F911D820F55
S11302D0911DEC01CC54DF4FF983E8837183608373
S11302E013821282558344831682178210861186E4
S11302F0128613861486158616861786108A118A26
S11303002F5F2C9381E001C080E0DF91CF910895AD
S113031083539F4FDC01ED91FC91309741F082E0D3
S113032090E093838283468357836087718708951F
S11303300F931F93CF93DF93CDB7DEB729970FB6F3
S1130340F894DEBF0FBECDBF8C010E94560081E041
S1130350898393E09A831B821C828D8380E895E2D3
S1130360A0E0B0E08E839F83A887B987BE016F5F4A
S11303707F4FC80181539F4F0E94A003F801E752A9
S1130380FF4F10821093B1000093B00029960FB66E
S1130390F894DEBF0FBECDBFDF91CF911F910F91B7
S11303A00895CF93DF93EC010E948800C153DF4F7F
S11303B040E051EE60E070E0CE010E94CD0360E6C3
S11303C070E0CE01DF91CF910C94F4030F931F934F
S11303D0CF93DF938C0107521F4FF8012081EC016A
S11303E0C153DF4F222329F06AE770E0CE010E9457
S11303F0F40381E0F8018083CE01DF91CF911F9156
S11304000F91089587529F4FFC01108208958150E7
S1130410833048F4E82FF0E0EE0FFF1FE956FF4F5A
S11304208081918108958BE390E00895CF93DF93C9
S1130430D62FC42F0E940702FC0121E030E001C046
S1130440220FDA95EAF78081C13011F4282B02C01B
S1130450209528232083DF91CF9108958AB1877E48
S11304608AB908959B01AC0184E0220F331F441F15
S1130470551F8A95D1F760E074E284EF90E00E9402
S113048008042150310930BD29B90895CF92DF9273
S1130490EF92FF920F931F93CF93DF93D82ED22F17
S11304A0CC2DCB01BA010E9432028D2F880F8068B7
S11304B098E0099F80011124082B80E1E89E7001D7
S11304C01124E02AE0BC88E18AB9D73009F4529AB1
S11304D0C23031F0C33031F0C13039F4579A05C01D
S11304E0569A03C08AB1806C8AB9D1100AC0DF91D0
S11304F0CF911F910F91FF90EF90DF90CF900C94CC
S11305002E02DF91CF911F910F91FF90EF90DF901A
S1130510CF9008955D9BFECF8CB908951F920F92E2
S11305200FB60F9211242F933F934F935F936F93C2
S11305307F938F939F93AF93BF93EF93FF938CB16C
S1130540E091B200F091B300309711F0099513C017
S11305502091B70030E02F5F3F4F2F7333279091E6
S1130560B600921741F0E091B700F0E0E850FF4F79
S113057080832093B700FF91EF91BF91AF919F913A
S11305808F917F916F915F914F913F912F910F9038
S11305900FBE0F901F9018951F920F920FB60F92D7
S11305A011248F939F93EF93FF939091B5008091C3
S11305B0B400981779F0E091B400F0E0E854FF4FEC
S11305C080818CB98091B40090E001968F73992753
S11305D08093B400FF91EF919F918F910F900FBE84
S11305E00F901F901895CF93DF9381E591E00E94BF
S11305F0E601EC016DE970E00E94D40380914D01A5
S113060090914E01A0914F01B0915001AC01BD01F8
S11306104F5F5F4F6F4F7F4F40934D0150934E019B
S113062060934F01709350014AE068E371E00E94C7
S11306303004BC01CE010E94D40381E591E00E9404
S1130640020242E350E060E070E081E591E0DF9176
S1130650CF910C948801CF93DF9381E591E00E94C0
S1130660E601EC0165EA70E00E94D403809149013F
S113067090914A01A0914B01B0914C01AC01BD0194
S11306804F5F5F4F6F4F7F4F4093490150934A0133
S113069060934B0170934C014AE068E371E00E945F
S11306A03004BC01CE010E94D40381E591E00E9494
S11306B0020244EF51E060E070E081E591E0DF91F7
S11306C0CF910C9488014091480160E082E00E943F
S11306D016029091480181E089278093480148EEF1
S11306E053E060E070E081E591E00C94880181E5DD
S11306F091E00E94D10143E050E063EF72E081E5B4
S113070091E00E94570142E050E06BE273E081E522
S113071091E00E94570141E050E063E673E081E517
S113072091E00E94570181E591E00E940401FBCF12
S113073081E591E00C94980180E292E00C94AA0384
S113074029E0FB01DC0101900D922A95E1F7FC01FF
S113075011860895FC01818581110C942E0208955F
S1130760CF92EF920F93CF93DF93EC014D815E8193
S11307706F817885CC80EB800A81298188810E94F1
S1130780460281E09881913009F080E08987DF9109
S1130790CF910F91EF90CF900895FC01458356833C
S11307A0678370870C94B0030F931F93CF93DF93E9
S11307B0FC018185882389F06115710571F0EB01D5
S11307C08B01C8018C1B9D0BF80121918F01222301
S11307D031F0822F0E948A02F4CF80E090E0DF9112
S11307E0CF911F910F9108950F931F93CF93DF9390
S11307F0EC010E94D4038C016DEA70E0CE010E94EA
S1130800D403800F911FDF91CF911F910F91089511
S1130810A1E21A2EAA1BBB1BFD010DC0AA1FBB1F00
S1130820EE1FFF1FA217B307E407F50720F0A21B72
S1130830B30BE40BF50B661F771F881F991F1A94DF
S113084069F760957095809590959B01AC01BD0109
S1130850CF010895EE0FFF1F0590F491E02D099448
S1130860BB274A3031F4992322F4BDE29095819557
S11308709F4F0C943C04BB27FB015527AA27880FE4
S1130880991FAA1FA41710F0A41B83955051B9F700
S1130890A05DAA3308F0A95DA193009779F7B1117F
S11308A0B1931192CB010C945504DC01FC01672F28
S11308B071917723E1F7329704C07C916D93708333
S11308C06291AE17BF07C8F3089510E0CBE2D0E001
S11308D004C0FE010E942A042196CC32D107C9F734
S10708E0F894FFCFB6
S11308E453797374656D204B65726E656C20696E03
S11308F4697469616C697A6564004552524F523A6D
S1130904205541525420697320616C726561647985
S1130914206275737921003800350032000A0D46CF
S113092441535423000A0D736C6F772E000D0A0093
S9030000FC
